{
  "contractName": "ApprovalContract",
  "abi": [
    {
      "constant": true,
      "inputs": [],
      "name": "approver",
      "outputs": [
        {
          "internalType": "address",
          "name": "",
          "type": "address"
        }
      ],
      "payable": false,
      "stateMutability": "view",
      "type": "function"
    },
    {
      "constant": true,
      "inputs": [],
      "name": "receiver",
      "outputs": [
        {
          "internalType": "address payable",
          "name": "",
          "type": "address"
        }
      ],
      "payable": false,
      "stateMutability": "view",
      "type": "function"
    },
    {
      "constant": true,
      "inputs": [],
      "name": "sender",
      "outputs": [
        {
          "internalType": "address",
          "name": "",
          "type": "address"
        }
      ],
      "payable": false,
      "stateMutability": "view",
      "type": "function"
    },
    {
      "constant": false,
      "inputs": [
        {
          "internalType": "address payable",
          "name": "_receiver",
          "type": "address"
        }
      ],
      "name": "deposit",
      "outputs": [],
      "payable": true,
      "stateMutability": "payable",
      "type": "function"
    },
    {
      "constant": true,
      "inputs": [],
      "name": "viewApprover",
      "outputs": [
        {
          "internalType": "address",
          "name": "",
          "type": "address"
        }
      ],
      "payable": false,
      "stateMutability": "pure",
      "type": "function"
    },
    {
      "constant": false,
      "inputs": [],
      "name": "approve",
      "outputs": [],
      "payable": false,
      "stateMutability": "nonpayable",
      "type": "function"
    }
  ],
  "bytecode": "0x608060405234801561001057600080fd5b506103d3806100206000396000f3fe6080604052600436106100555760003560e01c806312424e3f1461005a578063141a8dd81461007157806367e404ce146100c8578063d93ce89c1461011f578063f340fa0114610176578063f7260d3e146101ba575b600080fd5b34801561006657600080fd5b5061006f610211565b005b34801561007d57600080fd5b506100866102b5565b604051808273ffffffffffffffffffffffffffffffffffffffff1673ffffffffffffffffffffffffffffffffffffffff16815260200191505060405180910390f35b3480156100d457600080fd5b506100dd6102ba565b604051808273ffffffffffffffffffffffffffffffffffffffff1673ffffffffffffffffffffffffffffffffffffffff16815260200191505060405180910390f35b34801561012b57600080fd5b506101346102df565b604051808273ffffffffffffffffffffffffffffffffffffffff1673ffffffffffffffffffffffffffffffffffffffff16815260200191505060405180910390f35b6101b86004803603602081101561018c57600080fd5b81019080803573ffffffffffffffffffffffffffffffffffffffff1690602001909291905050506102e7565b005b3480156101c657600080fd5b506101cf610378565b604051808273ffffffffffffffffffffffffffffffffffffffff1673ffffffffffffffffffffffffffffffffffffffff16815260200191505060405180910390f35b600073ffffffffffffffffffffffffffffffffffffffff163373ffffffffffffffffffffffffffffffffffffffff161461024a57600080fd5b600160009054906101000a900473ffffffffffffffffffffffffffffffffffffffff1673ffffffffffffffffffffffffffffffffffffffff166108fc479081150290604051600060405180830381858888f193505050501580156102b2573d6000803e3d6000fd5b50565b600081565b6000809054906101000a900473ffffffffffffffffffffffffffffffffffffffff1681565b600080905090565b600034116102f457600080fd5b336000806101000a81548173ffffffffffffffffffffffffffffffffffffffff021916908373ffffffffffffffffffffffffffffffffffffffff16021790555080600160006101000a81548173ffffffffffffffffffffffffffffffffffffffff021916908373ffffffffffffffffffffffffffffffffffffffff16021790555050565b600160009054906101000a900473ffffffffffffffffffffffffffffffffffffffff168156fea265627a7a72315820f39ef22af99c36d94105285aeea59e452057639b3d51b514891abb03d635bc5b64736f6c63430005100032",
  "source": "pragma solidity ^0.5.16;\n\ncontract ApprovalContract {\n  address public sender;\n  address payable public receiver;\n  address public constant approver = 0x0000000000000000000000000000000000000000;\n\n  function deposit(address payable _receiver) external payable {\n    require(msg.value > 0);\n    sender = msg.sender;\n    receiver = _receiver;\n  }\n\n  function viewApprover() external pure returns(address) {\n    return(approver);\n  }\n\n  function approve() external {\n    require(msg.sender == approver);\n    receiver.transfer(address(this).balance);\n  }\n}\n",
  "sourcePath": "/Users/davidswift/Documents/projects/master-bidroom/contracts/ApprovalContract.sol",
  "compiler": {
    "name": "solc",
    "version": "0.5.16+commit.9c3226ce.Emscripten.clang"
  },
  "schemaVersion": "3.0.23",
  "updatedAt": "2020-05-25T09:08:18.636Z",
  "networkType": "ethereum",
  "devdoc": {
    "methods": {}
  },
  "userdoc": {
    "methods": {}
  }
}